{
  "contractName": "EbookSales",
  "abi": [
    {
      "inputs": [
        {
          "internalType": "uint256",
          "name": "",
          "type": "uint256"
        }
      ],
      "name": "ebookOwners",
      "outputs": [
        {
          "internalType": "address",
          "name": "",
          "type": "address"
        }
      ],
      "stateMutability": "view",
      "type": "function"
    },
    {
      "inputs": [
        {
          "internalType": "uint256",
          "name": "",
          "type": "uint256"
        }
      ],
      "name": "ebooks",
      "outputs": [
        {
          "internalType": "string",
          "name": "title",
          "type": "string"
        },
        {
          "internalType": "string",
          "name": "author",
          "type": "string"
        },
        {
          "internalType": "uint256",
          "name": "price",
          "type": "uint256"
        }
      ],
      "stateMutability": "view",
      "type": "function"
    },
    {
      "inputs": [
        {
          "internalType": "uint256",
          "name": "_id",
          "type": "uint256"
        },
        {
          "internalType": "string",
          "name": "_title",
          "type": "string"
        },
        {
          "internalType": "string",
          "name": "_author",
          "type": "string"
        },
        {
          "internalType": "uint256",
          "name": "_price",
          "type": "uint256"
        }
      ],
      "name": "listEbook",
      "outputs": [],
      "stateMutability": "nonpayable",
      "type": "function"
    },
    {
      "inputs": [
        {
          "internalType": "uint256",
          "name": "_id",
          "type": "uint256"
        }
      ],
      "name": "purchaseEbook",
      "outputs": [],
      "stateMutability": "payable",
      "type": "function"
    }
  ],
  "bytecode": "0x608060405234801561000f575f80fd5b50610a428061001d5f395ff3fe60806040526004361061003e575f3560e01c8063c2931a1514610042578063c9b52dca1461005e578063f38017b41461009c578063f7429855146100c4575b5f80fd5b61005c600480360381019061005791906103b4565b610100565b005b348015610069575f80fd5b50610084600480360381019061007f91906103b4565b6101a7565b60405161009393929190610478565b60405180910390f35b3480156100a7575f80fd5b506100c260048036038101906100bd91906105e7565b6102d8565b005b3480156100cf575f80fd5b506100ea60048036038101906100e591906103b4565b610340565b6040516100f791906106c2565b60405180910390f35b5f808281526020019081526020015f20600201543414610155576040517f08c379a000000000000000000000000000000000000000000000000000000000815260040161014c90610725565b60405180910390fd5b3360015f8381526020019081526020015f205f6101000a81548173ffffffffffffffffffffffffffffffffffffffff021916908373ffffffffffffffffffffffffffffffffffffffff16021790555050565b5f602052805f5260405f205f91509050805f0180546101c590610770565b80601f01602080910402602001604051908101604052809291908181526020018280546101f190610770565b801561023c5780601f106102135761010080835404028352916020019161023c565b820191905f5260205f20905b81548152906001019060200180831161021f57829003601f168201915b50505050509080600101805461025190610770565b80601f016020809104026020016040519081016040528092919081815260200182805461027d90610770565b80156102c85780601f1061029f576101008083540402835291602001916102c8565b820191905f5260205f20905b8154815290600101906020018083116102ab57829003601f168201915b5050505050908060020154905083565b6040518060600160405280848152602001838152602001828152505f808681526020019081526020015f205f820151815f019081610316919061093d565b50602082015181600101908161032c919061093d565b506040820151816002015590505050505050565b6001602052805f5260405f205f915054906101000a900473ffffffffffffffffffffffffffffffffffffffff1681565b5f604051905090565b5f80fd5b5f80fd5b5f819050919050565b61039381610381565b811461039d575f80fd5b50565b5f813590506103ae8161038a565b92915050565b5f602082840312156103c9576103c8610379565b5b5f6103d6848285016103a0565b91505092915050565b5f81519050919050565b5f82825260208201905092915050565b5f5b838110156104165780820151818401526020810190506103fb565b5f8484015250505050565b5f601f19601f8301169050919050565b5f61043b826103df565b61044581856103e9565b93506104558185602086016103f9565b61045e81610421565b840191505092915050565b61047281610381565b82525050565b5f6060820190508181035f8301526104908186610431565b905081810360208301526104a48185610431565b90506104b36040830184610469565b949350505050565b5f80fd5b5f80fd5b7f4e487b71000000000000000000000000000000000000000000000000000000005f52604160045260245ffd5b6104f982610421565b810181811067ffffffffffffffff82111715610518576105176104c3565b5b80604052505050565b5f61052a610370565b905061053682826104f0565b919050565b5f67ffffffffffffffff821115610555576105546104c3565b5b61055e82610421565b9050602081019050919050565b828183375f83830152505050565b5f61058b6105868461053b565b610521565b9050828152602081018484840111156105a7576105a66104bf565b5b6105b284828561056b565b509392505050565b5f82601f8301126105ce576105cd6104bb565b5b81356105de848260208601610579565b91505092915050565b5f805f80608085870312156105ff576105fe610379565b5b5f61060c878288016103a0565b945050602085013567ffffffffffffffff81111561062d5761062c61037d565b5b610639878288016105ba565b935050604085013567ffffffffffffffff81111561065a5761065961037d565b5b610666878288016105ba565b9250506060610677878288016103a0565b91505092959194509250565b5f73ffffffffffffffffffffffffffffffffffffffff82169050919050565b5f6106ac82610683565b9050919050565b6106bc816106a2565b82525050565b5f6020820190506106d55f8301846106b3565b92915050565b7f496e636f72726563742076616c756500000000000000000000000000000000005f82015250565b5f61070f600f836103e9565b915061071a826106db565b602082019050919050565b5f6020820190508181035f83015261073c81610703565b9050919050565b7f4e487b71000000000000000000000000000000000000000000000000000000005f52602260045260245ffd5b5f600282049050600182168061078757607f821691505b60208210810361079a57610799610743565b5b50919050565b5f819050815f5260205f209050919050565b5f6020601f8301049050919050565b5f82821b905092915050565b5f600883026107fc7fffffffffffffffffffffffffffffffffffffffffffffffffffffffffffffffff826107c1565b61080686836107c1565b95508019841693508086168417925050509392505050565b5f819050919050565b5f61084161083c61083784610381565b61081e565b610381565b9050919050565b5f819050919050565b61085a83610827565b61086e61086682610848565b8484546107cd565b825550505050565b5f90565b610882610876565b61088d818484610851565b505050565b5b818110156108b0576108a55f8261087a565b600181019050610893565b5050565b601f8211156108f5576108c6816107a0565b6108cf846107b2565b810160208510156108de578190505b6108f26108ea856107b2565b830182610892565b50505b505050565b5f82821c905092915050565b5f6109155f19846008026108fa565b1980831691505092915050565b5f61092d8383610906565b9150826002028217905092915050565b610946826103df565b67ffffffffffffffff81111561095f5761095e6104c3565b5b6109698254610770565b6109748282856108b4565b5f60209050601f8311600181146109a5575f8415610993578287015190505b61099d8582610922565b865550610a04565b601f1984166109b3866107a0565b5f5b828110156109da578489015182556001820191506020850194506020810190506109b5565b868310156109f757848901516109f3601f891682610906565b8355505b6001600288020188555050505b50505050505056fea2646970667358221220cf24d91a5f6ac68bca61979e9fb3199a5ee5858d73160a2ab1020624be4c110364736f6c63430008150033",
  "immutableReferences": {},
  "source": "// SPDX-License-Identifier: MIT\npragma solidity ^0.8.0;\n\ncontract EbookSales {\n    struct Ebook {\n        string title;\n        string author;\n        uint price;\n    }\n\n    mapping(uint => Ebook) public ebooks;\n    mapping(uint => address) public ebookOwners;\n\n    function listEbook(uint _id, string memory _title, string memory _author, uint _price) public {\n        ebooks[_id] = Ebook(_title, _author, _price);\n    }\n\n    function purchaseEbook(uint _id) public payable {\n        require(msg.value == ebooks[_id].price, \"Incorrect value\");\n        ebookOwners[_id] = msg.sender;\n        // Transfer funds to the seller here\n    }\n}\n",
  "sourcePath": "/workspaces/web3-hello-ebooks/ebook_sales_app/contracts/EbookSales.sol",
  "compiler": {
    "name": "solc",
    "version": "0.8.21+commit.d9974bed.Emscripten.clang"
  },
  "schemaVersion": "3.4.16",
  "updatedAt": "2024-02-17T17:55:17.785Z",
  "devdoc": {
    "kind": "dev",
    "methods": {},
    "version": 1
  },
  "userdoc": {
    "kind": "user",
    "methods": {},
    "version": 1
  }
}